{"abi":[{"type":"constructor","inputs":[],"stateMutability":"nonpayable"},{"type":"function","name":"allowance","inputs":[{"name":"owner","type":"address","internalType":"address"},{"name":"spender","type":"address","internalType":"address"}],"outputs":[{"name":"","type":"uint256","internalType":"uint256"}],"stateMutability":"view"},{"type":"function","name":"approve","inputs":[{"name":"spender","type":"address","internalType":"address"},{"name":"value","type":"uint256","internalType":"uint256"}],"outputs":[{"name":"","type":"bool","internalType":"bool"}],"stateMutability":"nonpayable"},{"type":"function","name":"balanceOf","inputs":[{"name":"account","type":"address","internalType":"address"}],"outputs":[{"name":"","type":"uint256","internalType":"uint256"}],"stateMutability":"view"},{"type":"function","name":"decimals","inputs":[],"outputs":[{"name":"","type":"uint8","internalType":"uint8"}],"stateMutability":"view"},{"type":"function","name":"failTransfers","inputs":[],"outputs":[{"name":"","type":"bool","internalType":"bool"}],"stateMutability":"view"},{"type":"function","name":"name","inputs":[],"outputs":[{"name":"","type":"string","internalType":"string"}],"stateMutability":"view"},{"type":"function","name":"setFailTransfers","inputs":[{"name":"_fail","type":"bool","internalType":"bool"}],"outputs":[],"stateMutability":"nonpayable"},{"type":"function","name":"symbol","inputs":[],"outputs":[{"name":"","type":"string","internalType":"string"}],"stateMutability":"view"},{"type":"function","name":"totalSupply","inputs":[],"outputs":[{"name":"","type":"uint256","internalType":"uint256"}],"stateMutability":"view"},{"type":"function","name":"transfer","inputs":[{"name":"to","type":"address","internalType":"address"},{"name":"amount","type":"uint256","internalType":"uint256"}],"outputs":[{"name":"","type":"bool","internalType":"bool"}],"stateMutability":"nonpayable"},{"type":"function","name":"transferFrom","inputs":[{"name":"from","type":"address","internalType":"address"},{"name":"to","type":"address","internalType":"address"},{"name":"amount","type":"uint256","internalType":"uint256"}],"outputs":[{"name":"","type":"bool","internalType":"bool"}],"stateMutability":"nonpayable"},{"type":"event","name":"Approval","inputs":[{"name":"owner","type":"address","indexed":true,"internalType":"address"},{"name":"spender","type":"address","indexed":true,"internalType":"address"},{"name":"value","type":"uint256","indexed":false,"internalType":"uint256"}],"anonymous":false},{"type":"event","name":"Transfer","inputs":[{"name":"from","type":"address","indexed":true,"internalType":"address"},{"name":"to","type":"address","indexed":true,"internalType":"address"},{"name":"value","type":"uint256","indexed":false,"internalType":"uint256"}],"anonymous":false},{"type":"error","name":"BridgeContract__Transaction_Failed","inputs":[]},{"type":"error","name":"ERC20InsufficientAllowance","inputs":[{"name":"spender","type":"address","internalType":"address"},{"name":"allowance","type":"uint256","internalType":"uint256"},{"name":"needed","type":"uint256","internalType":"uint256"}]},{"type":"error","name":"ERC20InsufficientBalance","inputs":[{"name":"sender","type":"address","internalType":"address"},{"name":"balance","type":"uint256","internalType":"uint256"},{"name":"needed","type":"uint256","internalType":"uint256"}]},{"type":"error","name":"ERC20InvalidApprover","inputs":[{"name":"approver","type":"address","internalType":"address"}]},{"type":"error","name":"ERC20InvalidReceiver","inputs":[{"name":"receiver","type":"address","internalType":"address"}]},{"type":"error","name":"ERC20InvalidSender","inputs":[{"name":"sender","type":"address","internalType":"address"}]},{"type":"error","name":"ERC20InvalidSpender","inputs":[{"name":"spender","type":"address","internalType":"address"}]}],"bytecode":{"object":"0x608060405234801561000f575f5ffd5b506040518060400160405280600a81526020017f4d6f636b20546f6b656e000000000000000000000000000000000000000000008152506040518060400160405280600381526020017f4d544b0000000000000000000000000000000000000000000000000000000000815250816003908161008b91906105bd565b50806004908161009b91906105bd565b5050506100d5336100b06100da60201b60201c565b600a6100bc91906107f4565b620f42406100ca919061083e565b6100e260201b60201c565b610967565b5f6012905090565b5f73ffffffffffffffffffffffffffffffffffffffff168273ffffffffffffffffffffffffffffffffffffffff1603610152575f6040517fec442f0500000000000000000000000000000000000000000000000000000000815260040161014991906108be565b60405180910390fd5b6101635f838361016760201b60201c565b5050565b5f73ffffffffffffffffffffffffffffffffffffffff168373ffffffffffffffffffffffffffffffffffffffff16036101b7578060025f8282546101ab91906108d7565b92505081905550610285565b5f5f5f8573ffffffffffffffffffffffffffffffffffffffff1673ffffffffffffffffffffffffffffffffffffffff1681526020019081526020015f2054905081811015610240578381836040517fe450d38c00000000000000000000000000000000000000000000000000000000815260040161023793929190610919565b60405180910390fd5b8181035f5f8673ffffffffffffffffffffffffffffffffffffffff1673ffffffffffffffffffffffffffffffffffffffff1681526020019081526020015f2081905550505b5f73ffffffffffffffffffffffffffffffffffffffff168273ffffffffffffffffffffffffffffffffffffffff16036102cc578060025f8282540392505081905550610316565b805f5f8473ffffffffffffffffffffffffffffffffffffffff1673ffffffffffffffffffffffffffffffffffffffff1681526020019081526020015f205f82825401925050819055505b8173ffffffffffffffffffffffffffffffffffffffff168373ffffffffffffffffffffffffffffffffffffffff167fddf252ad1be2c89b69c2b068fc378daa952ba7f163c4a11628f55a4df523b3ef83604051610373919061094e565b60405180910390a3505050565b5f81519050919050565b7f4e487b71000000000000000000000000000000000000000000000000000000005f52604160045260245ffd5b7f4e487b71000000000000000000000000000000000000000000000000000000005f52602260045260245ffd5b5f60028204905060018216806103fb57607f821691505b60208210810361040e5761040d6103b7565b5b50919050565b5f819050815f5260205f209050919050565b5f6020601f8301049050919050565b5f82821b905092915050565b5f600883026104707fffffffffffffffffffffffffffffffffffffffffffffffffffffffffffffffff82610435565b61047a8683610435565b95508019841693508086168417925050509392505050565b5f819050919050565b5f819050919050565b5f6104be6104b96104b484610492565b61049b565b610492565b9050919050565b5f819050919050565b6104d7836104a4565b6104eb6104e3826104c5565b848454610441565b825550505050565b5f5f905090565b6105026104f3565b61050d8184846104ce565b505050565b5b81811015610530576105255f826104fa565b600181019050610513565b5050565b601f8211156105755761054681610414565b61054f84610426565b8101602085101561055e578190505b61057261056a85610426565b830182610512565b50505b505050565b5f82821c905092915050565b5f6105955f198460080261057a565b1980831691505092915050565b5f6105ad8383610586565b9150826002028217905092915050565b6105c682610380565b67ffffffffffffffff8111156105df576105de61038a565b5b6105e982546103e4565b6105f4828285610534565b5f60209050601f831160018114610625575f8415610613578287015190505b61061d85826105a2565b865550610684565b601f19841661063386610414565b5f5b8281101561065a57848901518255600182019150602085019450602081019050610635565b868310156106775784890151610673601f891682610586565b8355505b6001600288020188555050505b505050505050565b7f4e487b71000000000000000000000000000000000000000000000000000000005f52601160045260245ffd5b5f8160011c9050919050565b5f5f8291508390505b600185111561070e578086048111156106ea576106e961068c565b5b60018516156106f95780820291505b8081029050610707856106b9565b94506106ce565b94509492505050565b5f8261072657600190506107e1565b81610733575f90506107e1565b8160018114610749576002811461075357610782565b60019150506107e1565b60ff8411156107655761076461068c565b5b8360020a91508482111561077c5761077b61068c565b5b506107e1565b5060208310610133831016604e8410600b84101617156107b75782820a9050838111156107b2576107b161068c565b5b6107e1565b6107c484848460016106c5565b925090508184048111156107db576107da61068c565b5b81810290505b9392505050565b5f60ff82169050919050565b5f6107fe82610492565b9150610809836107e8565b92506108367fffffffffffffffffffffffffffffffffffffffffffffffffffffffffffffffff8484610717565b905092915050565b5f61084882610492565b915061085383610492565b925082820261086181610492565b915082820484148315176108785761087761068c565b5b5092915050565b5f73ffffffffffffffffffffffffffffffffffffffff82169050919050565b5f6108a88261087f565b9050919050565b6108b88161089e565b82525050565b5f6020820190506108d15f8301846108af565b92915050565b5f6108e182610492565b91506108ec83610492565b92508282019050808211156109045761090361068c565b5b92915050565b61091381610492565b82525050565b5f60608201905061092c5f8301866108af565b610939602083018561090a565b610946604083018461090a565b949350505050565b5f6020820190506109615f83018461090a565b92915050565b610f69806109745f395ff3fe608060405234801561000f575f5ffd5b50600436106100a7575f3560e01c806341c469061161006f57806341c469061461016557806370a082311461018157806395d89b41146101b1578063a9059cbb146101cf578063c203b137146101ff578063dd62ed3e1461021d576100a7565b806306fdde03146100ab578063095ea7b3146100c957806318160ddd146100f957806323b872dd14610117578063313ce56714610147575b5f5ffd5b6100b361024d565b6040516100c09190610b8d565b60405180910390f35b6100e360048036038101906100de9190610c3e565b6102dd565b6040516100f09190610c96565b60405180910390f35b6101016102ff565b60405161010e9190610cbe565b60405180910390f35b610131600480360381019061012c9190610cd7565b610308565b60405161013e9190610c96565b60405180910390f35b61014f610363565b60405161015c9190610d42565b60405180910390f35b61017f600480360381019061017a9190610d85565b61036b565b005b61019b60048036038101906101969190610db0565b610387565b6040516101a89190610cbe565b60405180910390f35b6101b96103cc565b6040516101c69190610b8d565b60405180910390f35b6101e960048036038101906101e49190610c3e565b61045c565b6040516101f69190610c96565b60405180910390f35b6102076104b5565b6040516102149190610c96565b60405180910390f35b61023760048036038101906102329190610ddb565b6104c7565b6040516102449190610cbe565b60405180910390f35b60606003805461025c90610e46565b80601f016020809104026020016040519081016040528092919081815260200182805461028890610e46565b80156102d35780601f106102aa576101008083540402835291602001916102d3565b820191905f5260205f20905b8154815290600101906020018083116102b657829003601f168201915b5050505050905090565b5f5f6102e7610549565b90506102f4818585610550565b600191505092915050565b5f600254905090565b5f60055f9054906101000a900460ff161561034f576040517f6b49aaab00000000000000000000000000000000000000000000000000000000815260040160405180910390fd5b61035a848484610562565b90509392505050565b5f6012905090565b8060055f6101000a81548160ff02191690831515021790555050565b5f5f5f8373ffffffffffffffffffffffffffffffffffffffff1673ffffffffffffffffffffffffffffffffffffffff1681526020019081526020015f20549050919050565b6060600480546103db90610e46565b80601f016020809104026020016040519081016040528092919081815260200182805461040790610e46565b80156104525780601f1061042957610100808354040283529160200191610452565b820191905f5260205f20905b81548152906001019060200180831161043557829003601f168201915b5050505050905090565b5f60055f9054906101000a900460ff16156104a3576040517f6b49aaab00000000000000000000000000000000000000000000000000000000815260040160405180910390fd5b6104ad8383610590565b905092915050565b60055f9054906101000a900460ff1681565b5f60015f8473ffffffffffffffffffffffffffffffffffffffff1673ffffffffffffffffffffffffffffffffffffffff1681526020019081526020015f205f8373ffffffffffffffffffffffffffffffffffffffff1673ffffffffffffffffffffffffffffffffffffffff1681526020019081526020015f2054905092915050565b5f33905090565b61055d83838360016105b2565b505050565b5f5f61056c610549565b9050610579858285610781565b610584858585610814565b60019150509392505050565b5f5f61059a610549565b90506105a7818585610814565b600191505092915050565b5f73ffffffffffffffffffffffffffffffffffffffff168473ffffffffffffffffffffffffffffffffffffffff1603610622575f6040517fe602df050000000000000000000000000000000000000000000000000000000081526004016106199190610e85565b60405180910390fd5b5f73ffffffffffffffffffffffffffffffffffffffff168373ffffffffffffffffffffffffffffffffffffffff1603610692575f6040517f94280d620000000000000000000000000000000000000000000000000000000081526004016106899190610e85565b60405180910390fd5b8160015f8673ffffffffffffffffffffffffffffffffffffffff1673ffffffffffffffffffffffffffffffffffffffff1681526020019081526020015f205f8573ffffffffffffffffffffffffffffffffffffffff1673ffffffffffffffffffffffffffffffffffffffff1681526020019081526020015f2081905550801561077b578273ffffffffffffffffffffffffffffffffffffffff168473ffffffffffffffffffffffffffffffffffffffff167f8c5be1e5ebec7d5bd14f71427d1e84f3dd0314c0f7b2291e5b200ac8c7c3b925846040516107729190610cbe565b60405180910390a35b50505050565b5f61078c84846104c7565b90507fffffffffffffffffffffffffffffffffffffffffffffffffffffffffffffffff81101561080e57818110156107ff578281836040517ffb8f41b20000000000000000000000000000000000000000000000000000000081526004016107f693929190610e9e565b60405180910390fd5b61080d84848484035f6105b2565b5b50505050565b5f73ffffffffffffffffffffffffffffffffffffffff168373ffffffffffffffffffffffffffffffffffffffff1603610884575f6040517f96c6fd1e00000000000000000000000000000000000000000000000000000000815260040161087b9190610e85565b60405180910390fd5b5f73ffffffffffffffffffffffffffffffffffffffff168273ffffffffffffffffffffffffffffffffffffffff16036108f4575f6040517fec442f050000000000000000000000000000000000000000000000000000000081526004016108eb9190610e85565b60405180910390fd5b6108ff838383610904565b505050565b5f73ffffffffffffffffffffffffffffffffffffffff168373ffffffffffffffffffffffffffffffffffffffff1603610954578060025f8282546109489190610f00565b92505081905550610a22565b5f5f5f8573ffffffffffffffffffffffffffffffffffffffff1673ffffffffffffffffffffffffffffffffffffffff1681526020019081526020015f20549050818110156109dd578381836040517fe450d38c0000000000000000000000000000000000000000000000000000000081526004016109d493929190610e9e565b60405180910390fd5b8181035f5f8673ffffffffffffffffffffffffffffffffffffffff1673ffffffffffffffffffffffffffffffffffffffff1681526020019081526020015f2081905550505b5f73ffffffffffffffffffffffffffffffffffffffff168273ffffffffffffffffffffffffffffffffffffffff1603610a69578060025f8282540392505081905550610ab3565b805f5f8473ffffffffffffffffffffffffffffffffffffffff1673ffffffffffffffffffffffffffffffffffffffff1681526020019081526020015f205f82825401925050819055505b8173ffffffffffffffffffffffffffffffffffffffff168373ffffffffffffffffffffffffffffffffffffffff167fddf252ad1be2c89b69c2b068fc378daa952ba7f163c4a11628f55a4df523b3ef83604051610b109190610cbe565b60405180910390a3505050565b5f81519050919050565b5f82825260208201905092915050565b8281835e5f83830152505050565b5f601f19601f8301169050919050565b5f610b5f82610b1d565b610b698185610b27565b9350610b79818560208601610b37565b610b8281610b45565b840191505092915050565b5f6020820190508181035f830152610ba58184610b55565b905092915050565b5f5ffd5b5f73ffffffffffffffffffffffffffffffffffffffff82169050919050565b5f610bda82610bb1565b9050919050565b610bea81610bd0565b8114610bf4575f5ffd5b50565b5f81359050610c0581610be1565b92915050565b5f819050919050565b610c1d81610c0b565b8114610c27575f5ffd5b50565b5f81359050610c3881610c14565b92915050565b5f5f60408385031215610c5457610c53610bad565b5b5f610c6185828601610bf7565b9250506020610c7285828601610c2a565b9150509250929050565b5f8115159050919050565b610c9081610c7c565b82525050565b5f602082019050610ca95f830184610c87565b92915050565b610cb881610c0b565b82525050565b5f602082019050610cd15f830184610caf565b92915050565b5f5f5f60608486031215610cee57610ced610bad565b5b5f610cfb86828701610bf7565b9350506020610d0c86828701610bf7565b9250506040610d1d86828701610c2a565b9150509250925092565b5f60ff82169050919050565b610d3c81610d27565b82525050565b5f602082019050610d555f830184610d33565b92915050565b610d6481610c7c565b8114610d6e575f5ffd5b50565b5f81359050610d7f81610d5b565b92915050565b5f60208284031215610d9a57610d99610bad565b5b5f610da784828501610d71565b91505092915050565b5f60208284031215610dc557610dc4610bad565b5b5f610dd284828501610bf7565b91505092915050565b5f5f60408385031215610df157610df0610bad565b5b5f610dfe85828601610bf7565b9250506020610e0f85828601610bf7565b9150509250929050565b7f4e487b71000000000000000000000000000000000000000000000000000000005f52602260045260245ffd5b5f6002820490506001821680610e5d57607f821691505b602082108103610e7057610e6f610e19565b5b50919050565b610e7f81610bd0565b82525050565b5f602082019050610e985f830184610e76565b92915050565b5f606082019050610eb15f830186610e76565b610ebe6020830185610caf565b610ecb6040830184610caf565b949350505050565b7f4e487b71000000000000000000000000000000000000000000000000000000005f52601160045260245ffd5b5f610f0a82610c0b565b9150610f1583610c0b565b9250828201905080821115610f2d57610f2c610ed3565b5b9291505056fea2646970667358221220f26cabeb325703ecd84245f11ea40b0974bead0270eca1efbeb77111fccc2adb64736f6c634300081c0033","linkReferences":{}},"methodIdentifiers":{"allowance(address,address)":"dd62ed3e","approve(address,uint256)":"095ea7b3","balanceOf(address)":"70a08231","decimals()":"313ce567","failTransfers()":"c203b137","name()":"06fdde03","setFailTransfers(bool)":"41c46906","symbol()":"95d89b41","totalSupply()":"18160ddd","transfer(address,uint256)":"a9059cbb","transferFrom(address,address,uint256)":"23b872dd"},"id":21}