{"abi":[{"type":"constructor","inputs":[],"stateMutability":"nonpayable"},{"type":"function","name":"Bridge","inputs":[{"name":"_tokenAddress","type":"address","internalType":"contract IERC20"},{"name":"_amount","type":"uint256","internalType":"uint256"}],"outputs":[],"stateMutability":"nonpayable"},{"type":"function","name":"nonce","inputs":[],"outputs":[{"name":"","type":"uint256","internalType":"uint256"}],"stateMutability":"view"},{"type":"function","name":"owner","inputs":[],"outputs":[{"name":"","type":"address","internalType":"address"}],"stateMutability":"view"},{"type":"function","name":"redeem","inputs":[{"name":"_tokenaddress","type":"address","internalType":"contract IERC20"},{"name":"_nonce","type":"uint256","internalType":"uint256"},{"name":"_to","type":"address","internalType":"address"},{"name":"_amount","type":"uint256","internalType":"uint256"}],"outputs":[],"stateMutability":"nonpayable"},{"type":"function","name":"renounceOwnership","inputs":[],"outputs":[],"stateMutability":"nonpayable"},{"type":"function","name":"transferOwnership","inputs":[{"name":"newOwner","type":"address","internalType":"address"}],"outputs":[],"stateMutability":"nonpayable"},{"type":"event","name":"Bridged_event","inputs":[{"name":"token","type":"address","indexed":false,"internalType":"contract IERC20"},{"name":"amount","type":"uint256","indexed":false,"internalType":"uint256"},{"name":"sender","type":"address","indexed":true,"internalType":"address"}],"anonymous":false},{"type":"event","name":"OwnershipTransferred","inputs":[{"name":"previousOwner","type":"address","indexed":true,"internalType":"address"},{"name":"newOwner","type":"address","indexed":true,"internalType":"address"}],"anonymous":false},{"type":"event","name":"Redeemed","inputs":[{"name":"token","type":"address","indexed":false,"internalType":"contract IERC20"},{"name":"receiver","type":"address","indexed":true,"internalType":"address"},{"name":"amount","type":"uint256","indexed":false,"internalType":"uint256"}],"anonymous":false},{"type":"error","name":"Bridge_transaction_failed","inputs":[]},{"type":"error","name":"Nonce_not_valid","inputs":[]},{"type":"error","name":"Not_allowed_to_spend","inputs":[]},{"type":"error","name":"OwnableInvalidOwner","inputs":[{"name":"owner","type":"address","internalType":"address"}]},{"type":"error","name":"OwnableUnauthorizedAccount","inputs":[{"name":"account","type":"address","internalType":"address"}]},{"type":"error","name":"SafeERC20FailedOperation","inputs":[{"name":"token","type":"address","internalType":"address"}]},{"type":"error","name":"Token_tarnsfer_failed","inputs":[]}],"bytecode":{"object":"0x608060405234801561000f575f5ffd5b50335f73ffffffffffffffffffffffffffffffffffffffff168173ffffffffffffffffffffffffffffffffffffffff1603610081575f6040517f1e4fbdf70000000000000000000000000000000000000000000000000000000081526004016100789190610196565b60405180910390fd5b6100908161009660201b60201c565b506101af565b5f5f5f9054906101000a900473ffffffffffffffffffffffffffffffffffffffff169050815f5f6101000a81548173ffffffffffffffffffffffffffffffffffffffff021916908373ffffffffffffffffffffffffffffffffffffffff1602179055508173ffffffffffffffffffffffffffffffffffffffff168173ffffffffffffffffffffffffffffffffffffffff167f8be0079c531659141344cd1fd0a4f28419497f9722a3daafe3b4186f6b6457e060405160405180910390a35050565b5f73ffffffffffffffffffffffffffffffffffffffff82169050919050565b5f61018082610157565b9050919050565b61019081610176565b82525050565b5f6020820190506101a95f830184610187565b92915050565b6109a5806101bc5f395ff3fe608060405234801561000f575f5ffd5b5060043610610060575f3560e01c806322e3f16214610064578063715018a6146100805780638da5cb5b1461008a578063affed0e0146100a8578063f2fde38b146100c6578063f3f094a1146100e2575b5f5ffd5b61007e60048036038101906100799190610740565b6100fe565b005b610088610232565b005b610092610245565b60405161009f919061078d565b60405180910390f35b6100b061026c565b6040516100bd91906107b5565b60405180910390f35b6100e060048036038101906100db91906107f8565b610272565b005b6100fc60048036038101906100f79190610823565b6102f6565b005b808273ffffffffffffffffffffffffffffffffffffffff1663dd62ed3e33306040518363ffffffff1660e01b815260040161013a929190610887565b602060405180830381865afa158015610155573d5f5f3e3d5ffd5b505050506040513d601f19601f8201168201806040525081019061017991906108c2565b10156101b1576040517f7116aca200000000000000000000000000000000000000000000000000000000815260040160405180910390fd5b6101de3330838573ffffffffffffffffffffffffffffffffffffffff166103d4909392919063ffffffff16565b3373ffffffffffffffffffffffffffffffffffffffff167f7f6977f6f761c98385ce953aca17d0889a0e1ffb4cf704888c4d765a2bc462eb8383604051610226929190610948565b60405180910390a25050565b61023a610429565b6102435f6104b0565b565b5f5f5f9054906101000a900473ffffffffffffffffffffffffffffffffffffffff16905090565b60015481565b61027a610429565b5f73ffffffffffffffffffffffffffffffffffffffff168173ffffffffffffffffffffffffffffffffffffffff16036102ea575f6040517f1e4fbdf70000000000000000000000000000000000000000000000000000000081526004016102e1919061078d565b60405180910390fd5b6102f3816104b0565b50565b6102fe610429565b60025f8481526020019081526020015f205f9054906101000a900460ff1615610353576040517f051c9c3200000000000000000000000000000000000000000000000000000000815260040160405180910390fd5b61037e82828673ffffffffffffffffffffffffffffffffffffffff166105719092919063ffffffff16565b8173ffffffffffffffffffffffffffffffffffffffff167f27d4634c833b7622a0acddbf7f746183625f105945e95c723ad1d5a9f2a0b6fc85836040516103c6929190610948565b60405180910390a250505050565b6103e28484848460016105c4565b61042357836040517f5274afe700000000000000000000000000000000000000000000000000000000815260040161041a919061078d565b60405180910390fd5b50505050565b610431610635565b73ffffffffffffffffffffffffffffffffffffffff1661044f610245565b73ffffffffffffffffffffffffffffffffffffffff16146104ae57610472610635565b6040517f118cdaa70000000000000000000000000000000000000000000000000000000081526004016104a5919061078d565b60405180910390fd5b565b5f5f5f9054906101000a900473ffffffffffffffffffffffffffffffffffffffff169050815f5f6101000a81548173ffffffffffffffffffffffffffffffffffffffff021916908373ffffffffffffffffffffffffffffffffffffffff1602179055508173ffffffffffffffffffffffffffffffffffffffff168173ffffffffffffffffffffffffffffffffffffffff167f8be0079c531659141344cd1fd0a4f28419497f9722a3daafe3b4186f6b6457e060405160405180910390a35050565b61057e838383600161063c565b6105bf57826040517f5274afe70000000000000000000000000000000000000000000000000000000081526004016105b6919061078d565b60405180910390fd5b505050565b5f5f6323b872dd60e01b9050604051815f525f1960601c87166004525f1960601c86166024528460445260205f60645f5f8c5af1925060015f51148316610622578383151615610616573d5f823e3d81fd5b5f883b113d1516831692505b806040525f606052505095945050505050565b5f33905090565b5f5f63a9059cbb60e01b9050604051815f525f1960601c86166004528460245260205f60445f5f8b5af1925060015f51148316610690578383151615610684573d5f823e3d81fd5b5f873b113d1516831692505b806040525050949350505050565b5f5ffd5b5f73ffffffffffffffffffffffffffffffffffffffff82169050919050565b5f6106cb826106a2565b9050919050565b5f6106dc826106c1565b9050919050565b6106ec816106d2565b81146106f6575f5ffd5b50565b5f81359050610707816106e3565b92915050565b5f819050919050565b61071f8161070d565b8114610729575f5ffd5b50565b5f8135905061073a81610716565b92915050565b5f5f604083850312156107565761075561069e565b5b5f610763858286016106f9565b92505060206107748582860161072c565b9150509250929050565b610787816106c1565b82525050565b5f6020820190506107a05f83018461077e565b92915050565b6107af8161070d565b82525050565b5f6020820190506107c85f8301846107a6565b92915050565b6107d7816106c1565b81146107e1575f5ffd5b50565b5f813590506107f2816107ce565b92915050565b5f6020828403121561080d5761080c61069e565b5b5f61081a848285016107e4565b91505092915050565b5f5f5f5f6080858703121561083b5761083a61069e565b5b5f610848878288016106f9565b94505060206108598782880161072c565b935050604061086a878288016107e4565b925050606061087b8782880161072c565b91505092959194509250565b5f60408201905061089a5f83018561077e565b6108a7602083018461077e565b9392505050565b5f815190506108bc81610716565b92915050565b5f602082840312156108d7576108d661069e565b5b5f6108e4848285016108ae565b91505092915050565b5f819050919050565b5f61091061090b610906846106a2565b6108ed565b6106a2565b9050919050565b5f610921826108f6565b9050919050565b5f61093282610917565b9050919050565b61094281610928565b82525050565b5f60408201905061095b5f830185610939565b61096860208301846107a6565b939250505056fea264697066735822122081159027eef24aa1f4d8486aa84915c3582d1b2aae77d12d02065bd3102c850764736f6c634300081c0033","linkReferences":{}},"methodIdentifiers":{"Bridge(address,uint256)":"22e3f162","nonce()":"affed0e0","owner()":"8da5cb5b","redeem(address,uint256,address,uint256)":"f3f094a1","renounceOwnership()":"715018a6","transferOwnership(address)":"f2fde38b"},"id":29}