{"abi":[{"type":"constructor","inputs":[],"stateMutability":"nonpayable"},{"type":"function","name":"Bridge","inputs":[{"name":"_tokenAddress","type":"address","internalType":"contract IERC20"},{"name":"_amount","type":"uint256","internalType":"uint256"}],"outputs":[],"stateMutability":"nonpayable"},{"type":"function","name":"nonce","inputs":[],"outputs":[{"name":"","type":"uint256","internalType":"uint256"}],"stateMutability":"view"},{"type":"function","name":"owner","inputs":[],"outputs":[{"name":"","type":"address","internalType":"address"}],"stateMutability":"view"},{"type":"function","name":"redeem","inputs":[{"name":"_tokenaddress","type":"address","internalType":"contract IERC20"},{"name":"_nonce","type":"uint256","internalType":"uint256"},{"name":"_to","type":"address","internalType":"address"},{"name":"_amount","type":"uint256","internalType":"uint256"}],"outputs":[],"stateMutability":"nonpayable"},{"type":"function","name":"renounceOwnership","inputs":[],"outputs":[],"stateMutability":"nonpayable"},{"type":"function","name":"transferOwnership","inputs":[{"name":"newOwner","type":"address","internalType":"address"}],"outputs":[],"stateMutability":"nonpayable"},{"type":"event","name":"Bridged_event","inputs":[{"name":"sender","type":"address","indexed":true,"internalType":"address"},{"name":"amount","type":"uint256","indexed":false,"internalType":"uint256"}],"anonymous":false},{"type":"event","name":"OwnershipTransferred","inputs":[{"name":"previousOwner","type":"address","indexed":true,"internalType":"address"},{"name":"newOwner","type":"address","indexed":true,"internalType":"address"}],"anonymous":false},{"type":"event","name":"Redeemed","inputs":[{"name":"","type":"address","indexed":true,"internalType":"address"},{"name":"","type":"uint256","indexed":false,"internalType":"uint256"}],"anonymous":false},{"type":"error","name":"Bridge_transaction_failed","inputs":[]},{"type":"error","name":"Nonce_not_valid","inputs":[]},{"type":"error","name":"Not_allowed_to_spend","inputs":[]},{"type":"error","name":"OwnableInvalidOwner","inputs":[{"name":"owner","type":"address","internalType":"address"}]},{"type":"error","name":"OwnableUnauthorizedAccount","inputs":[{"name":"account","type":"address","internalType":"address"}]},{"type":"error","name":"SafeERC20FailedOperation","inputs":[{"name":"token","type":"address","internalType":"address"}]},{"type":"error","name":"Token_tarnsfer_failed","inputs":[]}],"bytecode":{"object":"0x608060405234801561000f575f5ffd5b50335f73ffffffffffffffffffffffffffffffffffffffff168173ffffffffffffffffffffffffffffffffffffffff1603610081575f6040517f1e4fbdf70000000000000000000000000000000000000000000000000000000081526004016100789190610196565b60405180910390fd5b6100908161009660201b60201c565b506101af565b5f5f5f9054906101000a900473ffffffffffffffffffffffffffffffffffffffff169050815f5f6101000a81548173ffffffffffffffffffffffffffffffffffffffff021916908373ffffffffffffffffffffffffffffffffffffffff1602179055508173ffffffffffffffffffffffffffffffffffffffff168173ffffffffffffffffffffffffffffffffffffffff167f8be0079c531659141344cd1fd0a4f28419497f9722a3daafe3b4186f6b6457e060405160405180910390a35050565b5f73ffffffffffffffffffffffffffffffffffffffff82169050919050565b5f61018082610157565b9050919050565b61019081610176565b82525050565b5f6020820190506101a95f830184610187565b92915050565b61091f806101bc5f395ff3fe608060405234801561000f575f5ffd5b5060043610610060575f3560e01c806322e3f16214610064578063715018a6146100805780638da5cb5b1461008a578063affed0e0146100a8578063f2fde38b146100c6578063f3f094a1146100e2575b5f5ffd5b61007e6004803603810190610079919061073c565b6100fe565b005b610088610230565b005b610092610243565b60405161009f9190610789565b60405180910390f35b6100b061026a565b6040516100bd91906107b1565b60405180910390f35b6100e060048036038101906100db91906107f4565b610270565b005b6100fc60048036038101906100f7919061081f565b6102f4565b005b808273ffffffffffffffffffffffffffffffffffffffff1663dd62ed3e33306040518363ffffffff1660e01b815260040161013a929190610883565b602060405180830381865afa158015610155573d5f5f3e3d5ffd5b505050506040513d601f19601f8201168201806040525081019061017991906108be565b10156101b1576040517f7116aca200000000000000000000000000000000000000000000000000000000815260040160405180910390fd5b6101de3330838573ffffffffffffffffffffffffffffffffffffffff166103d0909392919063ffffffff16565b3373ffffffffffffffffffffffffffffffffffffffff167ff853dc2995e418e0dc2c5553874ca0d6a4c9b0729238b865bf74a8d4a99470c08260405161022491906107b1565b60405180910390a25050565b610238610425565b6102415f6104ac565b565b5f5f5f9054906101000a900473ffffffffffffffffffffffffffffffffffffffff16905090565b60015481565b610278610425565b5f73ffffffffffffffffffffffffffffffffffffffff168173ffffffffffffffffffffffffffffffffffffffff16036102e8575f6040517f1e4fbdf70000000000000000000000000000000000000000000000000000000081526004016102df9190610789565b60405180910390fd5b6102f1816104ac565b50565b6102fc610425565b60025f8481526020019081526020015f205f9054906101000a900460ff1615610351576040517f051c9c3200000000000000000000000000000000000000000000000000000000815260040160405180910390fd5b61037c82828673ffffffffffffffffffffffffffffffffffffffff1661056d9092919063ffffffff16565b8173ffffffffffffffffffffffffffffffffffffffff167f4896181ff8f4543cc00db9fe9b6fb7e6f032b7eb772c72ab1ec1b4d2e03b9369826040516103c291906107b1565b60405180910390a250505050565b6103de8484848460016105c0565b61041f57836040517f5274afe70000000000000000000000000000000000000000000000000000000081526004016104169190610789565b60405180910390fd5b50505050565b61042d610631565b73ffffffffffffffffffffffffffffffffffffffff1661044b610243565b73ffffffffffffffffffffffffffffffffffffffff16146104aa5761046e610631565b6040517f118cdaa70000000000000000000000000000000000000000000000000000000081526004016104a19190610789565b60405180910390fd5b565b5f5f5f9054906101000a900473ffffffffffffffffffffffffffffffffffffffff169050815f5f6101000a81548173ffffffffffffffffffffffffffffffffffffffff021916908373ffffffffffffffffffffffffffffffffffffffff1602179055508173ffffffffffffffffffffffffffffffffffffffff168173ffffffffffffffffffffffffffffffffffffffff167f8be0079c531659141344cd1fd0a4f28419497f9722a3daafe3b4186f6b6457e060405160405180910390a35050565b61057a8383836001610638565b6105bb57826040517f5274afe70000000000000000000000000000000000000000000000000000000081526004016105b29190610789565b60405180910390fd5b505050565b5f5f6323b872dd60e01b9050604051815f525f1960601c87166004525f1960601c86166024528460445260205f60645f5f8c5af1925060015f5114831661061e578383151615610612573d5f823e3d81fd5b5f883b113d1516831692505b806040525f606052505095945050505050565b5f33905090565b5f5f63a9059cbb60e01b9050604051815f525f1960601c86166004528460245260205f60445f5f8b5af1925060015f5114831661068c578383151615610680573d5f823e3d81fd5b5f873b113d1516831692505b806040525050949350505050565b5f5ffd5b5f73ffffffffffffffffffffffffffffffffffffffff82169050919050565b5f6106c78261069e565b9050919050565b5f6106d8826106bd565b9050919050565b6106e8816106ce565b81146106f2575f5ffd5b50565b5f81359050610703816106df565b92915050565b5f819050919050565b61071b81610709565b8114610725575f5ffd5b50565b5f8135905061073681610712565b92915050565b5f5f604083850312156107525761075161069a565b5b5f61075f858286016106f5565b925050602061077085828601610728565b9150509250929050565b610783816106bd565b82525050565b5f60208201905061079c5f83018461077a565b92915050565b6107ab81610709565b82525050565b5f6020820190506107c45f8301846107a2565b92915050565b6107d3816106bd565b81146107dd575f5ffd5b50565b5f813590506107ee816107ca565b92915050565b5f602082840312156108095761080861069a565b5b5f610816848285016107e0565b91505092915050565b5f5f5f5f608085870312156108375761083661069a565b5b5f610844878288016106f5565b945050602061085587828801610728565b9350506040610866878288016107e0565b925050606061087787828801610728565b91505092959194509250565b5f6040820190506108965f83018561077a565b6108a3602083018461077a565b9392505050565b5f815190506108b881610712565b92915050565b5f602082840312156108d3576108d261069a565b5b5f6108e0848285016108aa565b9150509291505056fea26469706673582212204138dcd5223637b65650f96b5232e6e552e8e84b5b23b302b30537a5b531487c64736f6c634300081c0033","linkReferences":{}},"methodIdentifiers":{"Bridge(address,uint256)":"22e3f162","nonce()":"affed0e0","owner()":"8da5cb5b","redeem(address,uint256,address,uint256)":"f3f094a1","renounceOwnership()":"715018a6","transferOwnership(address)":"f2fde38b"},"id":29}